{
  "_format": "hh-sol-artifact-1",
  "contractName": "OracleIndicator",
  "sourceName": "contracts/OracleIndicator.sol",
  "abi": [
    {
      "inputs": [
        {
          "internalType": "string",
          "name": "_name",
          "type": "string"
        },
        {
          "internalType": "uint8",
          "name": "_decimals",
          "type": "uint8"
        },
        {
          "internalType": "address",
          "name": "_defaultAdmin",
          "type": "address"
        }
      ],
      "stateMutability": "nonpayable",
      "type": "constructor"
    },
    {
      "inputs": [],
      "name": "AccessControlBadConfirmation",
      "type": "error"
    },
    {
      "inputs": [
        {
          "internalType": "address",
          "name": "account",
          "type": "address"
        },
        {
          "internalType": "bytes32",
          "name": "neededRole",
          "type": "bytes32"
        }
      ],
      "name": "AccessControlUnauthorizedAccount",
      "type": "error"
    },
    {
      "inputs": [],
      "name": "MathOverflowedMulDiv",
      "type": "error"
    },
    {
      "anonymous": false,
      "inputs": [
        {
          "indexed": true,
          "internalType": "bytes32",
          "name": "role",
          "type": "bytes32"
        },
        {
          "indexed": true,
          "internalType": "bytes32",
          "name": "previousAdminRole",
          "type": "bytes32"
        },
        {
          "indexed": true,
          "internalType": "bytes32",
          "name": "newAdminRole",
          "type": "bytes32"
        }
      ],
      "name": "RoleAdminChanged",
      "type": "event"
    },
    {
      "anonymous": false,
      "inputs": [
        {
          "indexed": true,
          "internalType": "bytes32",
          "name": "role",
          "type": "bytes32"
        },
        {
          "indexed": true,
          "internalType": "address",
          "name": "account",
          "type": "address"
        },
        {
          "indexed": true,
          "internalType": "address",
          "name": "sender",
          "type": "address"
        }
      ],
      "name": "RoleGranted",
      "type": "event"
    },
    {
      "anonymous": false,
      "inputs": [
        {
          "indexed": true,
          "internalType": "bytes32",
          "name": "role",
          "type": "bytes32"
        },
        {
          "indexed": true,
          "internalType": "address",
          "name": "account",
          "type": "address"
        },
        {
          "indexed": true,
          "internalType": "address",
          "name": "sender",
          "type": "address"
        }
      ],
      "name": "RoleRevoked",
      "type": "event"
    },
    {
      "inputs": [],
      "name": "DEFAULT_ADMIN_ROLE",
      "outputs": [
        {
          "internalType": "bytes32",
          "name": "",
          "type": "bytes32"
        }
      ],
      "stateMutability": "view",
      "type": "function"
    },
    {
      "inputs": [],
      "name": "READ_ONLY",
      "outputs": [
        {
          "internalType": "bytes32",
          "name": "",
          "type": "bytes32"
        }
      ],
      "stateMutability": "view",
      "type": "function"
    },
    {
      "inputs": [],
      "name": "decimal",
      "outputs": [
        {
          "internalType": "uint8",
          "name": "",
          "type": "uint8"
        }
      ],
      "stateMutability": "view",
      "type": "function"
    },
    {
      "inputs": [
        {
          "internalType": "uint256",
          "name": "_timestamp",
          "type": "uint256"
        }
      ],
      "name": "getDate",
      "outputs": [
        {
          "components": [
            {
              "internalType": "int256",
              "name": "value",
              "type": "int256"
            },
            {
              "internalType": "uint256",
              "name": "updatedat",
              "type": "uint256"
            },
            {
              "internalType": "uint8",
              "name": "decimal",
              "type": "uint8"
            },
            {
              "internalType": "uint8",
              "name": "confidence",
              "type": "uint8"
            }
          ],
          "internalType": "struct OracleIndicator.DataFeed",
          "name": "",
          "type": "tuple"
        }
      ],
      "stateMutability": "view",
      "type": "function"
    },
    {
      "inputs": [
        {
          "internalType": "uint256",
          "name": "_start",
          "type": "uint256"
        },
        {
          "internalType": "uint256",
          "name": "_end",
          "type": "uint256"
        }
      ],
      "name": "getInterval",
      "outputs": [
        {
          "internalType": "int256",
          "name": "",
          "type": "int256"
        }
      ],
      "stateMutability": "view",
      "type": "function"
    },
    {
      "inputs": [],
      "name": "getLast",
      "outputs": [
        {
          "components": [
            {
              "internalType": "int256",
              "name": "value",
              "type": "int256"
            },
            {
              "internalType": "uint256",
              "name": "updatedat",
              "type": "uint256"
            },
            {
              "internalType": "uint8",
              "name": "decimal",
              "type": "uint8"
            },
            {
              "internalType": "uint8",
              "name": "confidence",
              "type": "uint8"
            }
          ],
          "internalType": "struct OracleIndicator.DataFeed",
          "name": "",
          "type": "tuple"
        }
      ],
      "stateMutability": "view",
      "type": "function"
    },
    {
      "inputs": [],
      "name": "getName",
      "outputs": [
        {
          "internalType": "string",
          "name": "",
          "type": "string"
        }
      ],
      "stateMutability": "view",
      "type": "function"
    },
    {
      "inputs": [
        {
          "internalType": "bytes32",
          "name": "role",
          "type": "bytes32"
        }
      ],
      "name": "getRoleAdmin",
      "outputs": [
        {
          "internalType": "bytes32",
          "name": "",
          "type": "bytes32"
        }
      ],
      "stateMutability": "view",
      "type": "function"
    },
    {
      "inputs": [
        {
          "internalType": "bytes32",
          "name": "role",
          "type": "bytes32"
        },
        {
          "internalType": "address",
          "name": "account",
          "type": "address"
        }
      ],
      "name": "grantRole",
      "outputs": [],
      "stateMutability": "nonpayable",
      "type": "function"
    },
    {
      "inputs": [
        {
          "internalType": "bytes32",
          "name": "role",
          "type": "bytes32"
        },
        {
          "internalType": "address",
          "name": "account",
          "type": "address"
        }
      ],
      "name": "hasRole",
      "outputs": [
        {
          "internalType": "bool",
          "name": "",
          "type": "bool"
        }
      ],
      "stateMutability": "view",
      "type": "function"
    },
    {
      "inputs": [
        {
          "internalType": "uint256",
          "name": "",
          "type": "uint256"
        }
      ],
      "name": "indicators",
      "outputs": [
        {
          "internalType": "int256",
          "name": "value",
          "type": "int256"
        },
        {
          "internalType": "uint256",
          "name": "updatedat",
          "type": "uint256"
        },
        {
          "internalType": "uint8",
          "name": "decimal",
          "type": "uint8"
        },
        {
          "internalType": "uint8",
          "name": "confidence",
          "type": "uint8"
        }
      ],
      "stateMutability": "view",
      "type": "function"
    },
    {
      "inputs": [
        {
          "internalType": "bytes32",
          "name": "role",
          "type": "bytes32"
        },
        {
          "internalType": "address",
          "name": "callerConfirmation",
          "type": "address"
        }
      ],
      "name": "renounceRole",
      "outputs": [],
      "stateMutability": "nonpayable",
      "type": "function"
    },
    {
      "inputs": [
        {
          "internalType": "bytes32",
          "name": "role",
          "type": "bytes32"
        },
        {
          "internalType": "address",
          "name": "account",
          "type": "address"
        }
      ],
      "name": "revokeRole",
      "outputs": [],
      "stateMutability": "nonpayable",
      "type": "function"
    },
    {
      "inputs": [
        {
          "internalType": "uint256",
          "name": "_timestamp",
          "type": "uint256"
        },
        {
          "internalType": "int256",
          "name": "_value",
          "type": "int256"
        },
        {
          "internalType": "uint256",
          "name": "_updatedat",
          "type": "uint256"
        },
        {
          "internalType": "uint8",
          "name": "_confidence",
          "type": "uint8"
        }
      ],
      "name": "saveIndicator",
      "outputs": [],
      "stateMutability": "nonpayable",
      "type": "function"
    },
    {
      "inputs": [
        {
          "internalType": "bytes4",
          "name": "interfaceId",
          "type": "bytes4"
        }
      ],
      "name": "supportsInterface",
      "outputs": [
        {
          "internalType": "bool",
          "name": "",
          "type": "bool"
        }
      ],
      "stateMutability": "view",
      "type": "function"
    }
  ],
  "bytecode": "0x60806040523480156200001157600080fd5b5060405162001c8938038062001c8983398181016040528101906200003791906200042e565b81600160006101000a81548160ff021916908360ff1602179055508260029081620000639190620006f4565b50620000796000801b826200008360201b60201c565b50505050620007db565b60006200009783836200018660201b60201c565b6200017b57600160008085815260200190815260200160002060000160008473ffffffffffffffffffffffffffffffffffffffff1673ffffffffffffffffffffffffffffffffffffffff16815260200190815260200160002060006101000a81548160ff02191690831515021790555062000117620001f060201b60201c565b73ffffffffffffffffffffffffffffffffffffffff168273ffffffffffffffffffffffffffffffffffffffff16847f2f8788117e7eff1d82e926ec794901d17c78024a50270940304540a733656f0d60405160405180910390a46001905062000180565b600090505b92915050565b600080600084815260200190815260200160002060000160008373ffffffffffffffffffffffffffffffffffffffff1673ffffffffffffffffffffffffffffffffffffffff16815260200190815260200160002060009054906101000a900460ff16905092915050565b600033905090565b6000604051905090565b600080fd5b600080fd5b600080fd5b600080fd5b6000601f19601f8301169050919050565b7f4e487b7100000000000000000000000000000000000000000000000000000000600052604160045260246000fd5b620002618262000216565b810181811067ffffffffffffffff8211171562000283576200028262000227565b5b80604052505050565b600062000298620001f8565b9050620002a6828262000256565b919050565b600067ffffffffffffffff821115620002c957620002c862000227565b5b620002d48262000216565b9050602081019050919050565b60005b8381101562000301578082015181840152602081019050620002e4565b60008484015250505050565b6000620003246200031e84620002ab565b6200028c565b90508281526020810184848401111562000343576200034262000211565b5b62000350848285620002e1565b509392505050565b600082601f83011262000370576200036f6200020c565b5b8151620003828482602086016200030d565b91505092915050565b600060ff82169050919050565b620003a3816200038b565b8114620003af57600080fd5b50565b600081519050620003c38162000398565b92915050565b600073ffffffffffffffffffffffffffffffffffffffff82169050919050565b6000620003f682620003c9565b9050919050565b6200040881620003e9565b81146200041457600080fd5b50565b6000815190506200042881620003fd565b92915050565b6000806000606084860312156200044a576200044962000202565b5b600084015167ffffffffffffffff8111156200046b576200046a62000207565b5b620004798682870162000358565b93505060206200048c86828701620003b2565b92505060406200049f8682870162000417565b9150509250925092565b600081519050919050565b7f4e487b7100000000000000000000000000000000000000000000000000000000600052602260045260246000fd5b60006002820490506001821680620004fc57607f821691505b602082108103620005125762000511620004b4565b5b50919050565b60008190508160005260206000209050919050565b60006020601f8301049050919050565b600082821b905092915050565b6000600883026200057c7fffffffffffffffffffffffffffffffffffffffffffffffffffffffffffffffff826200053d565b6200058886836200053d565b95508019841693508086168417925050509392505050565b6000819050919050565b6000819050919050565b6000620005d5620005cf620005c984620005a0565b620005aa565b620005a0565b9050919050565b6000819050919050565b620005f183620005b4565b620006096200060082620005dc565b8484546200054a565b825550505050565b600090565b6200062062000611565b6200062d818484620005e6565b505050565b5b8181101562000655576200064960008262000616565b60018101905062000633565b5050565b601f821115620006a4576200066e8162000518565b62000679846200052d565b8101602085101562000689578190505b620006a162000698856200052d565b83018262000632565b50505b505050565b600082821c905092915050565b6000620006c960001984600802620006a9565b1980831691505092915050565b6000620006e48383620006b6565b9150826002028217905092915050565b620006ff82620004a9565b67ffffffffffffffff8111156200071b576200071a62000227565b5b620007278254620004e3565b6200073482828562000659565b600060209050601f8311600181146200076c576000841562000757578287015190505b620007638582620006d6565b865550620007d3565b601f1984166200077c8662000518565b60005b82811015620007a6578489015182556001820191506020850194506020810190506200077f565b86831015620007c65784890151620007c2601f891682620006b6565b8355505b6001600288020188555050505b505050505050565b61149e80620007eb6000396000f3fe608060405234801561001057600080fd5b50600436106100f55760003560e01c806336568abe1161009757806391d148541161006657806391d148541461028657806392c871d2146102b6578063a217fddf146102e9578063d547741f14610307576100f5565b806336568abe146102125780634d6228311461022e57806376809ce31461024c57806377c6e4401461026a576100f5565b8063248a9ca3116100d3578063248a9ca3146101665780632b57298b146101965780632f2ff15d146101c65780633488ecb3146101e2576100f5565b806301ffc9a7146100fa57806315eecf211461012a57806317d7de7c14610148575b600080fd5b610114600480360381019061010f9190610ddb565b610323565b6040516101219190610e23565b60405180910390f35b61013261039d565b60405161013f9190610e57565b60405180910390f35b6101506103c1565b60405161015d9190610f02565b60405180910390f35b610180600480360381019061017b9190610f50565b610453565b60405161018d9190610e57565b60405180910390f35b6101b060048036038101906101ab9190610fb3565b610472565b6040516101bd9190611079565b60405180910390f35b6101e060048036038101906101db91906110f2565b610537565b005b6101fc60048036038101906101f79190611132565b610559565b6040516102099190611181565b60405180910390f35b61022c600480360381019061022791906110f2565b610641565b005b6102366106bc565b6040516102439190611079565b60405180910390f35b61025461074f565b60405161026191906111ab565b60405180910390f35b610284600480360381019061027f919061121e565b610766565b005b6102a0600480360381019061029b91906110f2565b6108b2565b6040516102ad9190610e23565b60405180910390f35b6102d060048036038101906102cb9190610fb3565b61091c565b6040516102e09493929190611294565b60405180910390f35b6102f1610966565b6040516102fe9190610e57565b60405180910390f35b610321600480360381019061031c91906110f2565b61096d565b005b60007f7965db0b000000000000000000000000000000000000000000000000000000007bffffffffffffffffffffffffffffffffffffffffffffffffffffffff1916827bffffffffffffffffffffffffffffffffffffffffffffffffffffffff1916148061039657506103958261098f565b5b9050919050565b7fb46ce43d76047f77f110931243fb48b444c01f8ce7d297bf5cdc21cb7634e00081565b6060600280546103d090611308565b80601f01602080910402602001604051908101604052809291908181526020018280546103fc90611308565b80156104495780601f1061041e57610100808354040283529160200191610449565b820191906000526020600020905b81548152906001019060200180831161042c57829003601f168201915b5050505050905090565b6000806000838152602001908152602001600020600101549050919050565b61047a610d50565b7fb46ce43d76047f77f110931243fb48b444c01f8ce7d297bf5cdc21cb7634e0006104a4816109f9565b600062015180846104b59190611368565b846104c091906113c8565b90506003600082815260200190815260200160002060405180608001604052908160008201548152602001600182015481526020016002820160009054906101000a900460ff1660ff1660ff1681526020016002820160019054906101000a900460ff1660ff1660ff168152505092505050919050565b61054082610453565b610549816109f9565b6105538383610a0d565b50505050565b60007fb46ce43d76047f77f110931243fb48b444c01f8ce7d297bf5cdc21cb7634e000610585816109f9565b600062015180856105969190611368565b856105a191906113c8565b9050600062015180856105b49190611368565b856105bf91906113c8565b905060006305f5e100905060008390505b82811161063357600060036000838152602001908152602001600020600001541261061d5761061a8260036000848152602001908152602001600020600001546305f5e100610afe565b91505b620151808161062c91906113fc565b90506105d0565b508094505050505092915050565b610649610c05565b73ffffffffffffffffffffffffffffffffffffffff168173ffffffffffffffffffffffffffffffffffffffff16146106ad576040517f6697b23200000000000000000000000000000000000000000000000000000000815260040160405180910390fd5b6106b78282610c0d565b505050565b6106c4610d50565b7fb46ce43d76047f77f110931243fb48b444c01f8ce7d297bf5cdc21cb7634e0006106ee816109f9565b600460405180608001604052908160008201548152602001600182015481526020016002820160009054906101000a900460ff1660ff1660ff1681526020016002820160019054906101000a900460ff1660ff1660ff168152505091505090565b6000600160009054906101000a900460ff16905090565b6000801b610773816109f9565b600062015180866107849190611368565b8661078f91906113c8565b90506040518060800160405280868152602001858152602001600160009054906101000a900460ff1660ff1681526020018460ff168152506004600082015181600001556020820151816001015560408201518160020160006101000a81548160ff021916908360ff16021790555060608201518160020160016101000a81548160ff021916908360ff16021790555090505060046003600083815260200190815260200160002060008201548160000155600182015481600101556002820160009054906101000a900460ff168160020160006101000a81548160ff021916908360ff1602179055506002820160019054906101000a900460ff168160020160016101000a81548160ff021916908360ff160217905550905050505050505050565b600080600084815260200190815260200160002060000160008373ffffffffffffffffffffffffffffffffffffffff1673ffffffffffffffffffffffffffffffffffffffff16815260200190815260200160002060009054906101000a900460ff16905092915050565b60036020528060005260406000206000915090508060000154908060010154908060020160009054906101000a900460ff16908060020160019054906101000a900460ff16905084565b6000801b81565b61097682610453565b61097f816109f9565b6109898383610c0d565b50505050565b60007f01ffc9a7000000000000000000000000000000000000000000000000000000007bffffffffffffffffffffffffffffffffffffffffffffffffffffffff1916827bffffffffffffffffffffffffffffffffffffffffffffffffffffffff1916149050919050565b610a0a81610a05610c05565b610cff565b50565b6000610a1983836108b2565b610af357600160008085815260200190815260200160002060000160008473ffffffffffffffffffffffffffffffffffffffff1673ffffffffffffffffffffffffffffffffffffffff16815260200190815260200160002060006101000a81548160ff021916908315150217905550610a90610c05565b73ffffffffffffffffffffffffffffffffffffffff168273ffffffffffffffffffffffffffffffffffffffff16847f2f8788117e7eff1d82e926ec794901d17c78024a50270940304540a733656f0d60405160405180910390a460019050610af8565b600090505b92915050565b6000808385029050600080198587098281108382030391505060008103610b3957838281610b2f57610b2e611339565b5b0492505050610bfe565b808411610b72576040517f227bc15300000000000000000000000000000000000000000000000000000000815260040160405180910390fd5b600084868809905082811182039150808303925060008560000386169050808604955080840493506001818260000304019050808302841793506000600287600302189050808702600203810290508087026002038102905080870260020381029050808702600203810290508087026002038102905080870260020381029050808502955050505050505b9392505050565b600033905090565b6000610c1983836108b2565b15610cf457600080600085815260200190815260200160002060000160008473ffffffffffffffffffffffffffffffffffffffff1673ffffffffffffffffffffffffffffffffffffffff16815260200190815260200160002060006101000a81548160ff021916908315150217905550610c91610c05565b73ffffffffffffffffffffffffffffffffffffffff168273ffffffffffffffffffffffffffffffffffffffff16847ff6391f5c32d9c69d2a47ea670b442974b53935d1edc7fd64eb21e047a839171b60405160405180910390a460019050610cf9565b600090505b92915050565b610d0982826108b2565b610d4c5780826040517fe2517d3f000000000000000000000000000000000000000000000000000000008152600401610d4392919061143f565b60405180910390fd5b5050565b60405180608001604052806000815260200160008152602001600060ff168152602001600060ff1681525090565b600080fd5b60007fffffffff0000000000000000000000000000000000000000000000000000000082169050919050565b610db881610d83565b8114610dc357600080fd5b50565b600081359050610dd581610daf565b92915050565b600060208284031215610df157610df0610d7e565b5b6000610dff84828501610dc6565b91505092915050565b60008115159050919050565b610e1d81610e08565b82525050565b6000602082019050610e386000830184610e14565b92915050565b6000819050919050565b610e5181610e3e565b82525050565b6000602082019050610e6c6000830184610e48565b92915050565b600081519050919050565b600082825260208201905092915050565b60005b83811015610eac578082015181840152602081019050610e91565b60008484015250505050565b6000601f19601f8301169050919050565b6000610ed482610e72565b610ede8185610e7d565b9350610eee818560208601610e8e565b610ef781610eb8565b840191505092915050565b60006020820190508181036000830152610f1c8184610ec9565b905092915050565b610f2d81610e3e565b8114610f3857600080fd5b50565b600081359050610f4a81610f24565b92915050565b600060208284031215610f6657610f65610d7e565b5b6000610f7484828501610f3b565b91505092915050565b6000819050919050565b610f9081610f7d565b8114610f9b57600080fd5b50565b600081359050610fad81610f87565b92915050565b600060208284031215610fc957610fc8610d7e565b5b6000610fd784828501610f9e565b91505092915050565b6000819050919050565b610ff381610fe0565b82525050565b61100281610f7d565b82525050565b600060ff82169050919050565b61101e81611008565b82525050565b60808201600082015161103a6000850182610fea565b50602082015161104d6020850182610ff9565b5060408201516110606040850182611015565b5060608201516110736060850182611015565b50505050565b600060808201905061108e6000830184611024565b92915050565b600073ffffffffffffffffffffffffffffffffffffffff82169050919050565b60006110bf82611094565b9050919050565b6110cf816110b4565b81146110da57600080fd5b50565b6000813590506110ec816110c6565b92915050565b6000806040838503121561110957611108610d7e565b5b600061111785828601610f3b565b9250506020611128858286016110dd565b9150509250929050565b6000806040838503121561114957611148610d7e565b5b600061115785828601610f9e565b925050602061116885828601610f9e565b9150509250929050565b61117b81610fe0565b82525050565b60006020820190506111966000830184611172565b92915050565b6111a581611008565b82525050565b60006020820190506111c0600083018461119c565b92915050565b6111cf81610fe0565b81146111da57600080fd5b50565b6000813590506111ec816111c6565b92915050565b6111fb81611008565b811461120657600080fd5b50565b600081359050611218816111f2565b92915050565b6000806000806080858703121561123857611237610d7e565b5b600061124687828801610f9e565b9450506020611257878288016111dd565b935050604061126887828801610f9e565b925050606061127987828801611209565b91505092959194509250565b61128e81610f7d565b82525050565b60006080820190506112a96000830187611172565b6112b66020830186611285565b6112c3604083018561119c565b6112d0606083018461119c565b95945050505050565b7f4e487b7100000000000000000000000000000000000000000000000000000000600052602260045260246000fd5b6000600282049050600182168061132057607f821691505b602082108103611333576113326112d9565b5b50919050565b7f4e487b7100000000000000000000000000000000000000000000000000000000600052601260045260246000fd5b600061137382610f7d565b915061137e83610f7d565b92508261138e5761138d611339565b5b828206905092915050565b7f4e487b7100000000000000000000000000000000000000000000000000000000600052601160045260246000fd5b60006113d382610f7d565b91506113de83610f7d565b92508282039050818111156113f6576113f5611399565b5b92915050565b600061140782610f7d565b915061141283610f7d565b925082820190508082111561142a57611429611399565b5b92915050565b611439816110b4565b82525050565b60006040820190506114546000830185611430565b6114616020830184610e48565b939250505056fea2646970667358221220bfa841d4836d8a91a72dbd9e370f6c1157491190f6d8f18ae7f94816ce2403f464736f6c63430008180033",
  "linkReferences": {},
  "deployedLinkReferences": {}
}